:100C4E0075A15575A1AAE5B954F84404F5B9E4F5B2
:020C5E00A122D1
:0E0C8100EF4E600905A1EF1F70F61E80F322F2
:100BF600AD07AC06ED4C600E7FE87E03120C81ED6E
:070C06001D70F11C80EE22BD
:040CB30043C6102202
:10090300C29FD29EC29DC2CDC2CC438780E4751CD8
:1009130082F51BF51AF5197B0AFAF9F8AF1CAE1B21
:10092300AD1AAC19120521AF038F1DAF1CAE1BAD61
:100933001AAC19E47B0AFAF9F81205218F1C8E1BF5
:100943008D1A8C19E51DC394054011EF2401F51C84
:10095300E43EF51BE43DF51AE43CF519E589540F33
:100963004420F58943C9A0E51CF404F58DD28ED249
:0309730099D29C7A
:01097600225E
:080CA3003098FDC298AF9922C0
:080CAB008F993099FDC29922D6
:100C0D0075A15575A1AAEF600543B101800353B1DC
:070C1D00FEE4F5A1F5FF2242
:030CB7008FFF228A
:100A91004400A7010101014400A201010101043444
:100AA100000000000331003800021E00000E21FF8B
:0D0AB1000B0400010000FF0BD80001000045
:1007C8009000AAE09000A5F0A2B2E4339000AAF04D
:1007D800E070189000A5E06012E4309405753716B3
:1007E8008003753715F536F535F534E49000ABF030
:1007F8009000ABE0FF24A7F582E43400F583E0FE27
:1008080074A22FF582E43400F583EEF09000ABE09B
:1008180004F0E0B403DAA291E4339000A7F0A2B1A7
:10082800E433A3F0A2B0E433A3F0E49000ABF0907B
:1008380000ABE0FFC39403503574A72FF582E4346E
:1008480000F583E060209000ABE024A2F582E43458
:1008580000F583E07010EF2401FFE433FEE48F37E6
:0E0868008E36F535F5349000ABE004F080C11B
:01087600225F
:1009E900AC34AD35AE36AF371205B30A1C00000082
:1009F900010A22000000020A29000000030A3D0042
:100A09000000040A30000000150A36000000160034
:100A1900000A3D7D0F7F0880047D637F05020BB3CB
:100A29007FE27E00020C247F387EFF80047FC87E2F
:050A390000120B8B22EE
:100ACD00120C4E7F647E00120BF6120A3ED2AFE47A
:100ADD00F5D5F512D291D2B1D2B0D296D297D29499
:100AED00D2B2D295209507AA32A9331205ED120C78
:070AFD008F120C99020C3965
:100B0400209517781F06E618700106781FE664051D
:100B14001846701E7F01FE020B8BC3781FE69405F6
:100B240018E694004006E4FFFE120B8BE4781EF6F0
:020B340008F6C1
:010B3600229C
:100BD8001207C8AF37AE36AD35AC34EC4D4E4F606A
:0E0BE8000C1209E9E4F537F536F535F534223F
:10097700120ACD7F017E00120BF60530E5307002BA
:10098700052FE49000A6F09000A6E0FF75F007A4FD
:100997002426F8E6FC08E6FDC3E5309DFDE52F9C1F
:1009A700FCEF75F007A42424F8E6FE08E6FFD3ED74
:1009B7009FEC9E401FE0FF75F007A42426F8A62FA2
:1009C70008A630EF75F007A42421F808E6FA08E630
:1009D700F91205ED9000A6E004F0E0C3940240A7E9
:0209E7008091FD
:1005F30005010906A1018501050719E029E7150091
:1006030025017501950881029501750881039505FA
:1006130075010508190129059102950175039103D7
:1006230095067508150025FF050719002965810042
:10063300C0050C0901A101850219002A3C0315001C
:10064300263C03950175188100C00501090EA1011F
:100653008503050D0921A10005090901950175010E
:10066300150025018102050109379501750F550F05
:10067300651436F0F146100E16F0F126100E8106C1
:10068300C0C01201000200000040315107200000E9
:100693000102030109022200010101A05A09040118
:1006A300000103000000092111010001229200074B
:1006B3000582034000010403090416034C004F00A4
:1006C3005F0053007400610063004E006500740016
:1006D30012034400690061006C005500530042009E
:0206E3002B00EA
:100C7100EFC3940AEF50052430FF80032437FF228D
:0606E5008B418A428943AB
:1006EB007DFA7C3F741E1204B1AB41AA42A9439020
:1006FB00000174031204C3E5A1C4540FFF120C7163
:10070B00AB41AA42A943900002EF1204C39000032D
:10071B00E41204C3E5A1540FFF120C71AB41AA42C2
:10072B00A943900004EF1204C3900005E41204C324
:10073B00E4FEED2EF582E43CF583E493C4540FFF05
:10074B00120C71AB41AA42A94375F004EEA4240626
:10075B00F582E435F0F583EF1204C3AB41AA42A94D
:10076B004375F004EEA42407F582E435F0F583E439
:10077B001204C3ED2EF582E43CF583E493540FFF92
:10078B00120C71AB41AA42A94375F004EEA42408E4
:10079B00F582E435F0F583EF1204C3AB41AA42A90D
:1007AB004375F004EEA42409F582E435F0F583E4F7
:0C07BB001204C30EEE6406600302073D4A
:0107C700220F
:100A3E007B017A0079841206E5E4F514F513F518B6
:100A4E00F511F510C2EA75E206F5D1F5E275D18021
:100A5E0043D18053D1FB53E2BF75ED0075EC0075A9
:100A6E00E50075E442F5DDF5D543EB0453EBFE7579
:100A7E00D412F5E343E22943D10175D8FF75E1079E
:030A8E00D2EA2287
:100B62008D47E5D4540360FAE547D3944040047FAF
:100B7200408002AF478F477E0078427C007D0112A1
:090B8200045E8547D553D4FC2222
:0300430002004672
:0D004600C0E0C0F0C083C082C0D075D008FB
:1000530020D903020367E5D9543F700302033F2409
:10006300FE602324E270030202E624F06021240EE2
:10007300600302036575D500E5D454FC4402F5D44E
:1000830075120102036520DE030203650203658521
:10009300DB40E540640860030202C0900007E060B3
:1000A300057513FF8006900006E0F5137540009078
:1000B3000001E0F514900000E05460602CE5141496
:1000C30024FD501524FA600914600E240270078081
:1000D3000875DD0080037540FFE513D39540500399
:1000E3000202C38540130202C3E514B40B004003AC
:1000F3000202BE9000FDF82828730202A60202172E
:100103000202BE02023D0202BE0201E502011E021C
:1001130002BE0201EE0202040202C3900003E024C5
:10012300FE601614602124E160632421707275154A
:10013300FF75160675178580417515FF75160675CB
:100143001797754022805C900002E01460151460DC
:10015300202402702A7515FF7516067517B97540A8
:100163000480407515FF7516067517BD754016801A
:10017300327515FF7516067517D3754012802475F1
:10018300150175160075178475401E8016900004BE
:10019300E014700C7515FF7516057517F37540920D
:1001A3007540FFE513D395404003854013E513C322
:1001B300944040047F408002AF138F407E0078005C
:1001C3007C007D01AB15AA16A91712045EC3E513C3
:1001D3009540F513E5402517F517E43516F5160296
:1001E30002C3900002E0F5130202C3900000E51081
:1001F300F0E513C3940150030202C37540010202E8
:10020300C3900002E0F510E51070030202C37518F5
:10021300010202C3900000E0541FFFBF02199000C7
:1002230004E024FE6006248070328000E5D454BCD0
:100233004402F5D40202C30202C0900000E0541F3E
:10024300FD701B900003E0FE900002E0FBEB6401F5
:100253004E700990069E9320E5668061805FED6491
:1002630002703E900003E0FE900002E0FDED4E7050
:100273002E900005E0FE900004E0FDEDFFEE701D02
:10028300EF24FE600E24807014E5D454BF4403F5BC
:10029300D4802DE5D4547F440CF5D48023801E8074
:1002A3001C801A900000E4F0A3F0E513C39402400D
:1002B30005754002800A851340800580007540FF64
:1002C300E540B4FF097514FF75DCCF020365E54013
:1002D300D3944050058540DD800375DD0075DCC097
:1002E300020365E51424FB60411460042405704493
:1002F300E513C3944040047F408002AF138F407ED8
:100303000078007C007D01AB15AA16A91712045EC4
:10031300C3E5139540F513E5402517F517E43516A6
:10032300F5168540DD63DC408038E5E354804513F2
:10033300F5E3800375DD0075DC028026E5DB6402EE
:10034300701D900000E0B40116A3E0FF30E004D27A
:10035300018002C201EF30E104D2008002C20063D7
:10036300DC80C2D930D80F75DC0275D41075E30078
:10037300C2DAC2D9C2D830DA04C2DA800375D8FF30
:0B038300D0D0D082D083D0F0D0E03288
:100C6000010000000000000000030000000200007E
:010C70000083
:0E0ABE00C101C1000838000000000000000067
:060003008B418A42894393
:1000090078487C007D007BFF7A0C79607E007F094F
:1000190012045EE4FFAB41AA42A9438F82758300B3
:10002900120484FE74492FF8A6060FBF08E77B0067
:090039007A0079487D09020B628E
:100BB3008F388D3AE4F512FB7A007938120003E599
:100BC3001260FCE4F538F53AFB7A00793812000339
:050BD300E51260FC22A8
:040B8B008E418F42C6
:100B8F0078437C007D007BFF7A0C79697E007F04BF
:100B9F0012045E8542448541457B007A0079437D8E
:040BAF0003020B62D0
:100C2400E4F512120B37E51260FCE4FFFE120B37F9
:050C3400E51260FC2246
:040B37008E418F421A
:100B3B0078487C007D007BFF7A0C796D7E007F040A
:100B4B0012045EE5427849F6E54108F67B007A002F
:070B5B0079487D04020B62E2
:0A0C8F003001047F0180027F002283
:0A0C99003000047F0180027F00227A
:100C3900A200300101B34003D38001C340047F0106
:050C490080027F002283
:030000000208777C
:0C087700787FE4F6D8FD7581500208BEC1
:10038E00E709F608DFFA8046E709F208DFFA803E51
:10039E0088828C83E709F0A3DFFA8032E309F6083E
:1003AE00DFFA8078E309F208DFFA807088828C83A6
:1003BE00E309F0A3DFFA806489828A83E0A3F6085A
:1003CE00DFFA805889828A83E0A3F208DFFA804C34
:1003DE0080D280FA80C680D4806980F2803380100B
:1003EE0080A680EA809A80A880DA80E280CA803374
:1003FE0089828A83ECFAE493A3C8C582C8CCC583EC
:10040E00CCF0A3C8C582C8CCC583CCDFE9DEE780BB
:10041E000D89828A83E493A3F608DFF9ECFAA9F03A
:10042E00EDFB2289828A83ECFAE0A3C8C582C8CC90
:10043E00C583CCF0A3C8C582C8CCC583CCDFEADEA9
:10044E00E880DB89828A83E493A3F208DFF980CC0B
:10045E0088F0EF60010E4E60C388F0ED2402B40404
:10046E000050B9F582EB2402B4040050AF232345AB
:06047E0082239003DE73EF
:10048400BB010CE58229F582E5833AF583E022502D
:1004940006E92582F8E622BBFE06E92582F8E22277
:0D04A400E58229F582E5833AF583E4932291
:1004B100BB010689828A83F0225002F722BBFE012A
:0204C100F32224
:1004C300F8BB010DE58229F582E5833AF583E8F06F
:1004D300225006E92582C8F622BBFE05E92582C81B
:0204E300F22203
:1004E50075F008758200EF2FFFEE33FECD33CDCCCE
:1004F50033CCC58233C5829BED9AEC99E582984051
:100505000CF582EE9BFEED9AFDEC99FC0FD5F0D62D
:10051500E4CEFBE4CDFAE4CCF9A88222B800C1B957
:100525000059BA002DEC8BF084CFCECDFCE5F0CB95
:10053500F97818EF2FFFEE33FEED33FDEC33FCEBCE
:1005450033FB10D703994004EB99FB0FD8E5E4F989
:10055500FA227818EF2FFFEE33FEED33FDEC33FC76
:10056500C933C910D7059BE99A4007EC9BFCE99A6A
:10057500F90FD8E0E4C9FAE4CCFB2275F010EF2FAF
:10058500FFEE33FEED33FDCC33CCC833C810D707AF
:100595009BEC9AE899400AED9BFDEC9AFCE899F8EA
:0E05A5000FD5F0DAE4CDFBE4CCFAE4C8F9227D
:1005B300D083D082E4937012740193700DA3A3933C
:1005C300F8740193F5828883E4737402936C701258
:1005D3007403936D700C7404936E70067405936FBB
:0A05E30060DDA3A3A3A3A3A380CAB5
:0605ED008A838982E47399
:10088300020977E493A3F8E493A34003F68001F20B
:1008930008DFF48029E493A3F85407240CC8C33376
:1008A300C4540F4420C8834004F456800146F6DF45
:1008B300E4800B0102040810204080900A91E47E3A
:1008C300019360BCA3FF543F30E509541FFEE4933A
:1008D300A360010ECF54C025E060A840B8E493A301
:1008E300FAE493A3F8E493A3C8C582C8CAC583CA2C
:1008F300F0A3C8C582C8CAC583CADFE9DEE780BEE4
:010ACC000029
:00000001FF
